{
  "contractName": "TicTacToe",
  "abi": [
    {
      "anonymous": false,
      "inputs": [
        {
          "indexed": false,
          "name": "player1",
          "type": "address"
        },
        {
          "indexed": false,
          "name": "player2",
          "type": "address"
        },
        {
          "indexed": false,
          "name": "matchId",
          "type": "bytes32"
        }
      ],
      "name": "MatchStarted",
      "type": "event"
    },
    {
      "anonymous": false,
      "inputs": [
        {
          "indexed": false,
          "name": "winner",
          "type": "address"
        },
        {
          "indexed": false,
          "name": "matchId",
          "type": "bytes32"
        }
      ],
      "name": "MatchWon",
      "type": "event"
    },
    {
      "anonymous": false,
      "inputs": [
        {
          "indexed": false,
          "name": "matchId",
          "type": "bytes32"
        }
      ],
      "name": "MatchDrawn",
      "type": "event"
    },
    {
      "anonymous": false,
      "inputs": [
        {
          "indexed": false,
          "name": "matchId",
          "type": "bytes32"
        },
        {
          "indexed": false,
          "name": "terminationTimeLimit",
          "type": "uint256"
        }
      ],
      "name": "TerminationStarted",
      "type": "event"
    },
    {
      "anonymous": false,
      "inputs": [
        {
          "indexed": false,
          "name": "matchId",
          "type": "bytes32"
        }
      ],
      "name": "TerminationCancelled",
      "type": "event"
    },
    {
      "constant": false,
      "inputs": [
        {
          "name": "opponent",
          "type": "address"
        },
        {
          "name": "terminationTimeLimit",
          "type": "uint256"
        }
      ],
      "name": "startMatch",
      "outputs": [
        {
          "name": "matchId",
          "type": "bytes32"
        }
      ],
      "payable": false,
      "stateMutability": "nonpayable",
      "type": "function"
    },
    {
      "constant": false,
      "inputs": [
        {
          "name": "matchId",
          "type": "bytes32"
        },
        {
          "name": "boardState",
          "type": "uint8[9]"
        },
        {
          "name": "gameStatus",
          "type": "uint8"
        },
        {
          "name": "stateNonce",
          "type": "uint256"
        },
        {
          "name": "signaturePlayer1",
          "type": "bytes"
        },
        {
          "name": "signaturePlayer2",
          "type": "bytes"
        }
      ],
      "name": "sendStateUpdate",
      "outputs": [],
      "payable": false,
      "stateMutability": "nonpayable",
      "type": "function"
    },
    {
      "constant": false,
      "inputs": [
        {
          "name": "matchId",
          "type": "bytes32"
        },
        {
          "name": "previousBoardState",
          "type": "uint8[9]"
        },
        {
          "name": "move",
          "type": "uint8"
        },
        {
          "name": "gameStatus",
          "type": "uint8"
        },
        {
          "name": "stateNonce",
          "type": "uint256"
        }
      ],
      "name": "forceStateUpdate",
      "outputs": [],
      "payable": false,
      "stateMutability": "nonpayable",
      "type": "function"
    },
    {
      "constant": false,
      "inputs": [
        {
          "name": "matchId",
          "type": "bytes32"
        }
      ],
      "name": "cancelTermination",
      "outputs": [],
      "payable": false,
      "stateMutability": "nonpayable",
      "type": "function"
    },
    {
      "constant": false,
      "inputs": [
        {
          "name": "matchId",
          "type": "bytes32"
        }
      ],
      "name": "startTermination",
      "outputs": [],
      "payable": false,
      "stateMutability": "nonpayable",
      "type": "function"
    }
  ],
  "bytecode": "0x608060405234801561001057600080fd5b506128db806100206000396000f3fe608060405260043610610067576000357c01000000000000000000000000000000000000000000000000000000009004806329d6a2d11461006c5780632e5c833d146100db57806361029eb01461029e57806392726f45146102d9578063d55c882f1461037b575b600080fd5b34801561007857600080fd5b506100c56004803603604081101561008f57600080fd5b81019080803573ffffffffffffffffffffffffffffffffffffffff169060200190929190803590602001909291905050506103b6565b6040518082815260200191505060405180910390f35b3480156100e757600080fd5b5061029c60048036036101c08110156100ff57600080fd5b81019080803590602001909291908061012001906009806020026040519081016040528092919082600960200280828437600081840152601f19601f8201169050808301925050505050509192919290803560ff169060200190929190803590602001909291908035906020019064010000000081111561017f57600080fd5b82018360208201111561019157600080fd5b803590602001918460018302840111640100000000831117156101b357600080fd5b91908080601f016020809104026020016040519081016040528093929190818152602001838380828437600081840152601f19601f8201169050808301925050505050505091929192908035906020019064010000000081111561021657600080fd5b82018360208201111561022857600080fd5b8035906020019184600183028401116401000000008311171561024a57600080fd5b91908080601f016020809104026020016040519081016040528093929190818152602001838380828437600081840152601f19601f820116905080830192505050505050509192919290505050610764565b005b3480156102aa57600080fd5b506102d7600480360360208110156102c157600080fd5b8101908080359060200190929190505050610dee565b005b3480156102e557600080fd5b5061037960048036036101a08110156102fd57600080fd5b81019080803590602001909291908061012001906009806020026040519081016040528092919082600960200280828437600081840152601f19601f8201169050808301925050505050509192919290803560ff169060200190929190803560ff169060200190929190803590602001909291905050506111c0565b005b34801561038757600080fd5b506103b46004803603602081101561039e57600080fd5b8101908080359060200190929190505050611856565b005b600061044a60016000803373ffffffffffffffffffffffffffffffffffffffff1673ffffffffffffffffffffffffffffffffffffffff16815260200190815260200160002060030160008673ffffffffffffffffffffffffffffffffffffffff1673ffffffffffffffffffffffffffffffffffffffff16815260200190815260200160002054611b2b90919063ffffffff16565b6000803373ffffffffffffffffffffffffffffffffffffffff1673ffffffffffffffffffffffffffffffffffffffff16815260200190815260200160002060030160008573ffffffffffffffffffffffffffffffffffffffff1673ffffffffffffffffffffffffffffffffffffffff1681526020019081526020016000208190555060008060003373ffffffffffffffffffffffffffffffffffffffff1673ffffffffffffffffffffffffffffffffffffffff16815260200190815260200160002060030160008573ffffffffffffffffffffffffffffffffffffffff1673ffffffffffffffffffffffffffffffffffffffff168152602001908152602001600020549050338482604051602001808473ffffffffffffffffffffffffffffffffffffffff1673ffffffffffffffffffffffffffffffffffffffff1681526020018373ffffffffffffffffffffffffffffffffffffffff1673ffffffffffffffffffffffffffffffffffffffff1681526020018281526020019350505050604051602081830303815290604052805190602001209150600180600084815260200190815260200160002060020160006101000a81548160ff02191690831515021790555082600160008481526020019081526020016000206007018190555060408051908101604052803373ffffffffffffffffffffffffffffffffffffffff1673ffffffffffffffffffffffffffffffffffffffff1681526020018573ffffffffffffffffffffffffffffffffffffffff1673ffffffffffffffffffffffffffffffffffffffff16815250600160008481526020019081526020016000206000019060026106ba929190612717565b507f3f76e05abc7be49390fb125127e31249aaebb6d7afde529731cca4af697ffeb1338584604051808473ffffffffffffffffffffffffffffffffffffffff1673ffffffffffffffffffffffffffffffffffffffff1681526020018373ffffffffffffffffffffffffffffffffffffffff1673ffffffffffffffffffffffffffffffffffffffff168152602001828152602001935050505060405180910390a18191505092915050565b856001600082815260200190815260200160002060020160009054906101000a900460ff1615156107fd576040517f08c379a00000000000000000000000000000000000000000000000000000000081526004018080602001828103825260188152602001807f4d61746368206973206e6f7420696e2070726f6772657373000000000000000081525060200191505060405180910390fd5b33878173ffffffffffffffffffffffffffffffffffffffff1660016000838152602001908152602001600020600001600060028110151561083a57fe5b0160009054906101000a900473ffffffffffffffffffffffffffffffffffffffff1673ffffffffffffffffffffffffffffffffffffffff1614806108ee57508173ffffffffffffffffffffffffffffffffffffffff166001600083815260200190815260200160002060000160016002811015156108b457fe5b0160009054906101000a900473ffffffffffffffffffffffffffffffffffffffff1673ffffffffffffffffffffffffffffffffffffffff16145b1515610962576040517f08c379a000000000000000000000000000000000000000000000000000000000815260040180806020018281038252601d8152602001807f4d757374206265206120706c6179657220696e20746865206d6174636800000081525060200191505060405180910390fd5b61096a612794565b600160008b815260200190815260200160002060e06040519081016040529081600082016002806020026040519081016040528092919082600280156109fb576020028201915b8160009054906101000a900473ffffffffffffffffffffffffffffffffffffffff1673ffffffffffffffffffffffffffffffffffffffff16815260200190600101908083116109b1575b505050505081526020016002820160009054906101000a900460ff1615151515815260200160038201548152602001600482015481526020016005820160009054906101000a900460ff16151515158152602001600682015481526020016007820154815250509050806060015187111515610b2b576040517f08c379a00000000000000000000000000000000000000000000000000000000081526004018080602001828103825260428152602001807f547279696e6720746f207570646174652061207374617465207769746820612081526020017f6e6f6e636520736d616c6c6572207468616e207468652063757272656e74206f81526020017f6e6500000000000000000000000000000000000000000000000000000000000081525060600191505060405180910390fd5b60008989896040516020018084600960200280838360005b83811015610b5e578082015181840152602081019050610b43565b505050509050018360ff1660ff1681526020018281526020019350505050604051602081830303815290604052805190602001209050610b9d81611bb5565b9050610ba76127e0565b6040805190810160405280610bc58a85611c0d90919063ffffffff16565b73ffffffffffffffffffffffffffffffffffffffff1673ffffffffffffffffffffffffffffffffffffffff168152602001610c098985611c0d90919063ffffffff16565b73ffffffffffffffffffffffffffffffffffffffff1673ffffffffffffffffffffffffffffffffffffffff16815250905082600001516000600281101515610c4d57fe5b602002015173ffffffffffffffffffffffffffffffffffffffff16816000600281101515610c7757fe5b602002015173ffffffffffffffffffffffffffffffffffffffff16141515610d07576040517f08c379a000000000000000000000000000000000000000000000000000000000815260040180806020018281038252601c8152602001807f57726f6e67207369676e617475726520666f7220706c6179657220310000000081525060200191505060405180910390fd5b82600001516001600281101515610d1a57fe5b602002015173ffffffffffffffffffffffffffffffffffffffff16816001600281101515610d4457fe5b602002015173ffffffffffffffffffffffffffffffffffffffff16141515610dd4576040517f08c379a000000000000000000000000000000000000000000000000000000000815260040180806020018281038252601c8152602001807f57726f6e67207369676e617475726520666f7220706c6179657220320000000081525060200191505060405180910390fd5b610de08c8b8b85611d14565b505050505050505050505050565b806001600082815260200190815260200160002060020160009054906101000a900460ff161515610e87576040517f08c379a00000000000000000000000000000000000000000000000000000000081526004018080602001828103825260188152602001807f4d61746368206973206e6f7420696e2070726f6772657373000000000000000081525060200191505060405180910390fd5b816001600082815260200190815260200160002060050160009054906101000a900460ff161515610f20576040517f08c379a000000000000000000000000000000000000000000000000000000000815260040180806020018281038252601b8152602001807f4d61746368206973206e6f7420696e207465726d696e6174696f6e000000000081525060200191505060405180910390fd5b8242600160008381526020019081526020016000206007015460016000848152602001908152602001600020600601540111151515610fed576040517f08c379a00000000000000000000000000000000000000000000000000000000081526004018080602001828103825260298152602001807f54696d65206c696d697420746f207265736f6c7665207465726d696e6174696f81526020017f6e2065787069726564000000000000000000000000000000000000000000000081525060400191505060405180910390fd5b33848173ffffffffffffffffffffffffffffffffffffffff1660016000838152602001908152602001600020600001600060028110151561102a57fe5b0160009054906101000a900473ffffffffffffffffffffffffffffffffffffffff1673ffffffffffffffffffffffffffffffffffffffff1614806110de57508173ffffffffffffffffffffffffffffffffffffffff166001600083815260200190815260200160002060000160016002811015156110a457fe5b0160009054906101000a900473ffffffffffffffffffffffffffffffffffffffff1673ffffffffffffffffffffffffffffffffffffffff16145b1515611152576040517f08c379a000000000000000000000000000000000000000000000000000000000815260040180806020018281038252601d8152602001807f4d757374206265206120706c6179657220696e20746865206d6174636800000081525060200191505060405180910390fd5b60006001600088815260200190815260200160002060050160006101000a81548160ff0219169083151502179055507f4b474cd298ec179c75dcd4faa7f8608d2027b26061e20f696050ccc65526711e866040518082815260200191505060405180910390a1505050505050565b846001600082815260200190815260200160002060020160009054906101000a900460ff161515611259576040517f08c379a00000000000000000000000000000000000000000000000000000000081526004018080602001828103825260188152602001807f4d61746368206973206e6f7420696e2070726f6772657373000000000000000081525060200191505060405180910390fd5b33868173ffffffffffffffffffffffffffffffffffffffff1660016000838152602001908152602001600020600001600060028110151561129657fe5b0160009054906101000a900473ffffffffffffffffffffffffffffffffffffffff1673ffffffffffffffffffffffffffffffffffffffff16148061134a57508173ffffffffffffffffffffffffffffffffffffffff1660016000838152602001908152602001600020600001600160028110151561131057fe5b0160009054906101000a900473ffffffffffffffffffffffffffffffffffffffff1673ffffffffffffffffffffffffffffffffffffffff16145b15156113be576040517f08c379a000000000000000000000000000000000000000000000000000000000815260040180806020018281038252601d8152602001807f4d757374206265206120706c6179657220696e20746865206d6174636800000081525060200191505060405180910390fd5b6113c6612794565b600160008a815260200190815260200160002060e0604051908101604052908160008201600280602002604051908101604052809291908260028015611457576020028201915b8160009054906101000a900473ffffffffffffffffffffffffffffffffffffffff1673ffffffffffffffffffffffffffffffffffffffff168152602001906001019080831161140d575b505050505081526020016002820160009054906101000a900460ff1615151515815260200160038201548152602001600482015481526020016005820160009054906101000a900460ff161515151581526020016006820154815260200160078201548152505090506114c8612802565b88905060006002878115156114d957fe5b0614156115c357816000015160006002811015156114f357fe5b602002015173ffffffffffffffffffffffffffffffffffffffff163373ffffffffffffffffffffffffffffffffffffffff1614151561159a576040517f08c379a00000000000000000000000000000000000000000000000000000000081526004018080602001828103825260118152602001807f4e6f7420706c617965722031207475726e00000000000000000000000000000081525060200191505060405180910390fd5b6001818960ff166009811015156115ad57fe5b602002019060ff16908160ff16815250506116a2565b816000015160006002811015156115d657fe5b602002015173ffffffffffffffffffffffffffffffffffffffff163373ffffffffffffffffffffffffffffffffffffffff1614151561167d576040517f08c379a00000000000000000000000000000000000000000000000000000000081526004018080602001828103825260118152602001807f4e6f7420706c617965722032207475726e00000000000000000000000000000081525060200191505060405180910390fd5b6002818960ff1660098110151561169057fe5b602002019060ff16908160ff16815250505b6000898960ff166009811015156116b557fe5b602002015160ff16141515611732576040517f08c379a00000000000000000000000000000000000000000000000000000000081526004018080602001828103825260158152602001807f43656c6c20616c7265616479206f63637570696564000000000000000000000081525060200191505060405180910390fd5b8160800151156117a3576000600160008c815260200190815260200160002060050160006101000a81548160ff0219169083151502179055507f4b474cd298ec179c75dcd4faa7f8608d2027b26061e20f696050ccc65526711e8a6040518082815260200191505060405180910390a15b60008a8289896040516020018085815260200184600960200280838360005b838110156117dd5780820151818401526020810190506117c2565b505050509050018360ff1660ff16815260200182815260200194505050505060405160208183030381529060405280519060200120905061181d81611bb5565b90506118288261215d565b1561183c576118378b33612436565b611849565b6118488b898984611d14565b5b5050505050505050505050565b80426001600083815260200190815260200160002060070154600160008481526020019081526020016000206006015401111515611922576040517f08c379a00000000000000000000000000000000000000000000000000000000081526004018080602001828103825260318152602001807f54696d65206c696d697420746f207265736f6c7665207465726d696e6174696f81526020017f6e20686173206e6f74206578706972656400000000000000000000000000000081525060400191505060405180910390fd5b33828173ffffffffffffffffffffffffffffffffffffffff1660016000838152602001908152602001600020600001600060028110151561195f57fe5b0160009054906101000a900473ffffffffffffffffffffffffffffffffffffffff1673ffffffffffffffffffffffffffffffffffffffff161480611a1357508173ffffffffffffffffffffffffffffffffffffffff166001600083815260200190815260200160002060000160016002811015156119d957fe5b0160009054906101000a900473ffffffffffffffffffffffffffffffffffffffff1673ffffffffffffffffffffffffffffffffffffffff16145b1515611a87576040517f08c379a000000000000000000000000000000000000000000000000000000000815260040180806020018281038252601d8152602001807f4d757374206265206120706c6179657220696e20746865206d6174636800000081525060200191505060405180910390fd5b600180600086815260200190815260200160002060050160006101000a81548160ff0219169083151502179055504260016000868152602001908152602001600020600601819055507f8d1863f3ce820cd76911dc171760789d4ce353c841a97e321b01b5795dfa6513846001600087815260200190815260200160002060070154604051808381526020018281526020019250505060405180910390a150505050565b6000808284019050838110151515611bab576040517f08c379a000000000000000000000000000000000000000000000000000000000815260040180806020018281038252601b8152602001807f536166654d6174683a206164646974696f6e206f766572666c6f77000000000081525060200191505060405180910390fd5b8091505092915050565b60008160405160200180807f19457468657265756d205369676e6564204d6573736167653a0a333200000000815250601c01828152602001915050604051602081830303815290604052805190602001209050919050565b600060418251141515611c235760009050611d0e565b60008060006020850151925060408501519150606085015160001a90507f7fffffffffffffffffffffffffffffff5d576e7357a4501ddfe92f46681b20a082600190041115611c785760009350505050611d0e565b601b8160ff1614158015611c905750601c8160ff1614155b15611ca15760009350505050611d0e565b60018682858560405160008152602001604052604051808581526020018460ff1660ff1681526020018381526020018281526020019450505050506020604051602081039080840390855afa158015611cfe573d6000803e3d6000fd5b5050506020604051035193505050505b92915050565b611d1c612794565b6001600086815260200190815260200160002060e0604051908101604052908160008201600280602002604051908101604052809291908260028015611dad576020028201915b8160009054906101000a900473ffffffffffffffffffffffffffffffffffffffff1673ffffffffffffffffffffffffffffffffffffffff1681526020019060010190808311611d63575b505050505081526020016002820160009054906101000a900460ff1615151515815260200160038201548152602001600482015481526020016005820160009054906101000a900460ff1615151515815260200160068201548152602001600782015481525050905060008460ff161415611e8e57806080015115611e755760008160800190151590811515815250507f4b474cd298ec179c75dcd4faa7f8608d2027b26061e20f696050ccc65526711e856040518082815260200191505060405180910390a15b8181604001818152505082816060018181525050612156565b60018460ff161480611ea3575060028460ff16145b15611efd57600060018560ff1614611ed25781600001516001600281101515611ec857fe5b6020020151611eeb565b81600001516000600281101515611ee557fe5b60200201515b9050611ef78682612436565b50612155565b60038460ff1614156120e657611f116127e0565b81600001519050611f806001600080846000600281101515611f2f57fe5b602002015173ffffffffffffffffffffffffffffffffffffffff1673ffffffffffffffffffffffffffffffffffffffff16815260200190815260200160002060020154611b2b90919063ffffffff16565b600080836000600281101515611f9257fe5b602002015173ffffffffffffffffffffffffffffffffffffffff1673ffffffffffffffffffffffffffffffffffffffff168152602001908152602001600020600201819055506120406001600080846001600281101515611fef57fe5b602002015173ffffffffffffffffffffffffffffffffffffffff1673ffffffffffffffffffffffffffffffffffffffff16815260200190815260200160002060020154611b2b90919063ffffffff16565b60008083600160028110151561205257fe5b602002015173ffffffffffffffffffffffffffffffffffffffff1673ffffffffffffffffffffffffffffffffffffffff1681526020019081526020016000206002018190555060008260200190151590811515815250507f19da4d77d5e9f090b735ac72ae3dd624d6e843213bd2d9e3166153c29d4a4f5e866040518082815260200191505060405180910390a150612154565b6040517f08c379a00000000000000000000000000000000000000000000000000000000081526004018080602001828103825260138152602001807f696e76616c69642067616d65207374617475730000000000000000000000000081525060200191505060405180910390fd5b5b5b5050505050565b6000612167612826565b6101006040519081016040528084600260098110151561218357fe5b602002015185600160098110151561219757fe5b60200201518660006009811015156121ab57fe5b6020020151161660ff1660ff1681526020018460056009811015156121cc57fe5b60200201518560046009811015156121e057fe5b60200201518660036009811015156121f457fe5b6020020151161660ff1660ff16815260200184600860098110151561221557fe5b602002015185600760098110151561222957fe5b602002015186600660098110151561223d57fe5b6020020151161660ff1660ff16815260200184600660098110151561225e57fe5b602002015185600360098110151561227257fe5b602002015186600060098110151561228657fe5b6020020151161660ff1660ff1681526020018460076009811015156122a757fe5b60200201518560046009811015156122bb57fe5b60200201518660016009811015156122cf57fe5b6020020151161660ff1660ff1681526020018460086009811015156122f057fe5b602002015185600560098110151561230457fe5b602002015186600260098110151561231857fe5b6020020151161660ff1660ff16815260200184600860098110151561233957fe5b602002015185600460098110151561234d57fe5b602002015186600060098110151561236157fe5b6020020151161660ff1660ff16815260200184600660098110151561238257fe5b602002015185600460098110151561239657fe5b60200201518660026009811015156123aa57fe5b6020020151161660ff1660ff16815250905060008090505b60088160ff16101561242a576001828260ff166008811015156123e157fe5b602002015160ff16148061240d57506002828260ff1660088110151561240357fe5b602002015160ff16145b1561241d57600192505050612431565b80806001019150506123c2565b5060009150505b919050565b60008173ffffffffffffffffffffffffffffffffffffffff1660016000858152602001908152602001600020600001600060028110151561247357fe5b0160009054906101000a900473ffffffffffffffffffffffffffffffffffffffff1673ffffffffffffffffffffffffffffffffffffffff16146124fb576001600084815260200190815260200160002060000160006002811015156124d457fe5b0160009054906101000a900473ffffffffffffffffffffffffffffffffffffffff16612542565b60016000848152602001908152602001600020600001600160028110151561251f57fe5b0160009054906101000a900473ffffffffffffffffffffffffffffffffffffffff165b905061259960016000808573ffffffffffffffffffffffffffffffffffffffff1673ffffffffffffffffffffffffffffffffffffffff16815260200190815260200160002060000154611b2b90919063ffffffff16565b6000808473ffffffffffffffffffffffffffffffffffffffff1673ffffffffffffffffffffffffffffffffffffffff1681526020019081526020016000206000018190555061263360016000808573ffffffffffffffffffffffffffffffffffffffff1673ffffffffffffffffffffffffffffffffffffffff16815260200190815260200160002060000154611b2b90919063ffffffff16565b6000808373ffffffffffffffffffffffffffffffffffffffff1673ffffffffffffffffffffffffffffffffffffffff1681526020019081526020016000206001018190555060006001600085815260200190815260200160002060020160006101000a81548160ff0219169083151502179055507f56fbc85c835bbed2dbee02295d2d8b1b8fdd180770ac5331dc951cc1e96d85f38284604051808373ffffffffffffffffffffffffffffffffffffffff1673ffffffffffffffffffffffffffffffffffffffff1681526020018281526020019250505060405180910390a1505050565b8260028101928215612783579160200282015b828111156127825782518260006101000a81548173ffffffffffffffffffffffffffffffffffffffff021916908373ffffffffffffffffffffffffffffffffffffffff1602179055509160200191906001019061272a565b5b509050612790919061284a565b5090565b610100604051908101604052806127a961288d565b8152602001600015158152602001600080191681526020016000815260200160001515815260200160008152602001600081525090565b6040805190810160405280600290602082028038833980820191505090505090565b61012060405190810160405280600990602082028038833980820191505090505090565b61010060405190810160405280600890602082028038833980820191505090505090565b61288a91905b8082111561288657600081816101000a81549073ffffffffffffffffffffffffffffffffffffffff021916905550600101612850565b5090565b90565b604080519081016040528060029060208202803883398082019150509050509056fea165627a7a72305820e21e6d5fd7093f03a8edd9a8d8dc49f46565377e061a6a8e5975304500357f8b0029",
  "source": "pragma solidity ^0.5.0;\n\nimport \"./Libraries/SafeMath.sol\";\nimport \"./Libraries/RLP.sol\";\nimport \"./Libraries/ECDSA.sol\";\n\ncontract TicTacToe {\n    using SafeMath for uint256;\n    using RLPReader for RLPReader.RLPItem;\n    using RLPReader for bytes;\n    using ECDSA for bytes32;\n\n    struct Player {\n        uint256 wins;\n        uint256 losses;\n        uint256 draws;\n        // number of matches played against an opponent\n        mapping(address => uint256) opponentNonce;\n    }\n\n    struct Match {\n        address[2] players;\n        bool inProgress;\n        bytes32 currentStateRoot;\n        uint256 currentStateNonce;\n        bool termination;\n        uint256 terminationStartTimestamp;\n        uint256 terminationTimeLimit;\n    }\n\n    // map from player address to his stats\n    mapping(address => Player) playerStats;\n    // map from matchId to current state of that match\n    mapping(bytes32 => Match) matches;\n\n    event MatchStarted(address player1, address player2, bytes32 matchId);\n    event MatchWon(address winner, bytes32 matchId);\n    event MatchDrawn(bytes32 matchId);\n    event TerminationStarted(bytes32 matchId, uint256 terminationTimeLimit);\n    event TerminationCancelled(bytes32 matchId);\n\n    function startMatch(address opponent, uint256 terminationTimeLimit)\n        public\n        returns (bytes32 matchId)\n    {\n        playerStats[msg.sender].opponentNonce[opponent] = playerStats[msg.sender].opponentNonce[opponent].add(1);\n        uint256 nonce = playerStats[msg.sender].opponentNonce[opponent];\n\n        // no need to verify if matchId is unique, if we assume the hash function is collision resistant\n        matchId = keccak256(abi.encode(msg.sender, opponent, nonce));\n        matches[matchId].inProgress = true;\n        // termination time limit in seconds\n        matches[matchId].terminationTimeLimit = terminationTimeLimit;\n        matches[matchId].players = [msg.sender, opponent];\n\n        emit MatchStarted(msg.sender, opponent, matchId);\n        return matchId;\n    }\n\n    modifier matchInProgress(bytes32 matchId) {\n        require(matches[matchId].inProgress, \"Match is not in progress\");\n        _;\n    }\n\n    modifier terminationInProgress(bytes32 matchId) {\n        require(matches[matchId].termination, \"Match is not in termination\");\n        _;\n    }\n\n    modifier matchTerminationNotExpired(bytes32 matchId) {\n        require(\n            matches[matchId].terminationStartTimestamp + matches[matchId].terminationTimeLimit <= block.timestamp,\n            \"Time limit to resolve termination expired\"\n        );\n        _;\n    }\n\n    modifier matchTerminationExpired(bytes32 matchId) {\n        require(\n            matches[matchId].terminationStartTimestamp + matches[matchId].terminationTimeLimit > block.timestamp,\n            \"Time limit to resolve termination has not expired\"\n        );\n        _;\n    }\n\n    modifier playerIsPartOfMatch(address player, bytes32 matchId) {\n        require(\n            matches[matchId].players[0] == player || matches[matchId].players[1] == player,\n            \"Must be a player in the match\"\n        );\n        _;\n    }\n\n    function sendStateUpdate(\n        bytes32 matchId,\n        uint8[9] memory boardState,\n        uint8 gameStatus,\n        uint256 stateNonce,\n        bytes memory signaturePlayer1,\n        bytes memory signaturePlayer2\n    )\n        public matchInProgress(matchId) playerIsPartOfMatch(msg.sender, matchId)\n    {\n        Match memory currMatch = matches[matchId];\n\n        require(\n            stateNonce > currMatch.currentStateNonce,\n            \"Trying to update a state with a nonce smaller than the current one\"\n        );\n\n        // users should have signed this state root\n        bytes32 stateRoot = keccak256(abi.encode(boardState, gameStatus, stateNonce));\n        // messages signed are prepended with \"\\x19Ethereum Signed Message:\\n32\" for safety\n        stateRoot = stateRoot.toEthSignedMessageHash();\n\n        // get address used to sign state root\n        address[2] memory players = [\n            stateRoot.recover(signaturePlayer1),\n            stateRoot.recover(signaturePlayer2)\n        ];\n\n        // we assume the first signature is from player 1, the player that called startMatch(...)\n        require(players[0] == currMatch.players[0], \"Wrong signature for player 1\");\n        require(players[1] == currMatch.players[1], \"Wrong signature for player 2\");\n\n        updateMatchState(matchId, gameStatus, stateNonce, stateRoot);\n    }\n\n    function updateMatchState(\n        bytes32 matchId,\n        uint8 gameStatus,\n        uint256 stateNonce,\n        bytes32 stateRoot\n    )\n        internal\n    {\n        Match memory currMatch = matches[matchId];\n\n        if(gameStatus == 0) {\n            // if game in progress, gameStatus == 0\n            if(currMatch.termination){\n                currMatch.termination = false;\n                emit TerminationCancelled(matchId);\n            }\n            currMatch.currentStateRoot = stateRoot;\n            currMatch.currentStateNonce = stateNonce;\n        } else if(gameStatus == 1 || gameStatus == 2) {\n            // if player 1 won, gameStatus == 1\n            // if player 2 won, gameStatus == 2\n            address winner = gameStatus == 1 ? currMatch.players[0] : currMatch.players[1];\n\n            playerWonMatch(matchId, winner);\n        } else if(gameStatus == 3) {\n            // if game was a draw, gameStatus == 3\n            address[2] memory players = currMatch.players;\n\n            // add a draw for player 1\n            playerStats[players[0]].draws = playerStats[players[0]].draws.add(1);\n            // add a draw for player 2\n            playerStats[players[1]].draws = playerStats[players[1]].draws.add(1);\n\n            // game finished\n            currMatch.inProgress = false;\n            emit MatchDrawn(matchId);\n        } else {\n            revert(\"invalid game status\");\n        }\n    }\n\n    // start termination\n    function forceStateUpdate(\n        bytes32 matchId,\n        uint8[9] memory previousBoardState,\n        uint8 move,\n        uint8 gameStatus,\n        uint256 stateNonce\n    )\n        public matchInProgress(matchId) playerIsPartOfMatch(msg.sender, matchId)\n    {\n        // check if transition is valid\n        Match memory currMatch = matches[matchId];\n        uint8[9] memory newState = previousBoardState;\n\n        // check the game state is valid\n        // check it's the player's turn\n        if(stateNonce % 2 == 0) {\n            require(msg.sender == currMatch.players[0], \"Not player 1 turn\");\n            newState[move] = 1;\n        } else {\n            require(msg.sender == currMatch.players[0], \"Not player 2 turn\");\n            newState[move] = 2;\n        }\n        // check that the space isn't already checked\n        require(previousBoardState[move] == 0, \"Cell already occupied\");\n\n        if(currMatch.termination){\n            matches[matchId].termination = false;\n            emit TerminationCancelled(matchId);\n        }\n\n        bytes32 stateRoot = keccak256(abi.encode(matchId, newState, gameStatus, stateNonce));\n        // messages signed are prepended with \"\\x19Ethereum Signed Message:\\n32\" for safety\n        stateRoot = stateRoot.toEthSignedMessageHash();\n\n        if(isWinningState(newState)) {\n            playerWonMatch(matchId, msg.sender);\n        } else {\n            // Update game state\n            updateMatchState(matchId, gameStatus, stateNonce, stateRoot);\n        }\n    }\n\n    function isWinningState(uint8[9] memory state) internal returns (bool) {\n        uint8[8] memory rows = [\n            state[0] & state[1] & state[2],\n            state[3] & state[4] & state[5],\n            state[6] & state[7] & state[8],\n            state[0] & state[3] & state[6],\n            state[1] & state[4] & state[7],\n            state[2] & state[5] & state[8],\n            state[0] & state[4] & state[8],\n            state[2] & state[4] & state[6]\n        ];\n        // Loop over all of the rows and check if they bitwise and to 0x01 or 0x02\n        for (uint8 i = 0; i < rows.length; i++) {\n            if (rows[i] == 0x01 || rows[i] == 0x02) {\n                return true;\n            }\n        }\n\n        return false;\n    }\n\n    // bob acknowledges and cancels the termination\n    function cancelTermination(bytes32 matchId)\n        public\n        matchInProgress(matchId)\n        terminationInProgress(matchId)\n        matchTerminationNotExpired(matchId)\n        playerIsPartOfMatch(msg.sender, matchId)\n    {\n        matches[matchId].termination = false;\n        emit TerminationCancelled(matchId);\n    }\n\n    // open a termination window\n    function startTermination(bytes32 matchId)\n        public\n        matchTerminationExpired(matchId) playerIsPartOfMatch(msg.sender, matchId)\n    {\n        matches[matchId].termination = true;\n        // could use current block number\n        matches[matchId].terminationStartTimestamp = block.timestamp;\n        emit TerminationStarted(matchId, matches[matchId].terminationTimeLimit);\n    }\n\n    function playerWonMatch(bytes32 matchId, address winner) internal {\n        // infer the looser based on winner, as its a 2 player game\n        address looser = matches[matchId].players[0] == winner ? matches[matchId].players[1] : matches[matchId].players[0];\n\n        playerStats[winner].wins = playerStats[winner].wins.add(1);\n        playerStats[looser].losses = playerStats[winner].wins.add(1);\n\n        // game finished\n        matches[matchId].inProgress = false;\n        emit MatchWon(winner, matchId);\n    }\n}",
  "sourcePath": "/Users/fred/dev/eth-tac-toe/contracts/TicTacToe.sol",
  "compiler": {
    "name": "solc",
    "version": "0.5.1+commit.c8a2cb62.Emscripten.clang"
  },
  "schemaVersion": "3.0.23",
  "updatedAt": "2020-03-11T08:33:32.770Z",
  "networkType": "ethereum",
  "devdoc": {
    "methods": {}
  },
  "userdoc": {
    "methods": {}
  }
}