{
  "contractName": "TicTacToe",
  "abi": [
    {
      "constant": true,
      "inputs": [
        {
          "name": "",
          "type": "address"
        }
      ],
      "name": "playerStats",
      "outputs": [
        {
          "name": "wins",
          "type": "uint256"
        },
        {
          "name": "losses",
          "type": "uint256"
        },
        {
          "name": "draws",
          "type": "uint256"
        }
      ],
      "payable": false,
      "stateMutability": "view",
      "type": "function"
    },
    {
      "anonymous": false,
      "inputs": [
        {
          "indexed": false,
          "name": "player1",
          "type": "address"
        },
        {
          "indexed": false,
          "name": "player2",
          "type": "address"
        },
        {
          "indexed": false,
          "name": "matchId",
          "type": "bytes32"
        }
      ],
      "name": "MatchStarted",
      "type": "event"
    },
    {
      "anonymous": false,
      "inputs": [
        {
          "indexed": false,
          "name": "winner",
          "type": "address"
        },
        {
          "indexed": false,
          "name": "matchId",
          "type": "bytes32"
        }
      ],
      "name": "MatchWon",
      "type": "event"
    },
    {
      "anonymous": false,
      "inputs": [
        {
          "indexed": false,
          "name": "matchId",
          "type": "bytes32"
        }
      ],
      "name": "MatchDrawn",
      "type": "event"
    },
    {
      "anonymous": false,
      "inputs": [
        {
          "indexed": false,
          "name": "matchId",
          "type": "bytes32"
        },
        {
          "indexed": false,
          "name": "terminationTimeLimit",
          "type": "uint256"
        }
      ],
      "name": "TerminationStarted",
      "type": "event"
    },
    {
      "anonymous": false,
      "inputs": [
        {
          "indexed": false,
          "name": "matchId",
          "type": "bytes32"
        }
      ],
      "name": "TerminationCancelled",
      "type": "event"
    },
    {
      "constant": false,
      "inputs": [
        {
          "name": "opponent",
          "type": "address"
        },
        {
          "name": "terminationTimeLimit",
          "type": "uint256"
        }
      ],
      "name": "startMatch",
      "outputs": [
        {
          "name": "matchId",
          "type": "bytes32"
        }
      ],
      "payable": false,
      "stateMutability": "nonpayable",
      "type": "function"
    },
    {
      "constant": false,
      "inputs": [
        {
          "name": "matchId",
          "type": "bytes32"
        },
        {
          "name": "boardState",
          "type": "uint8[9]"
        },
        {
          "name": "gameStatus",
          "type": "uint8"
        },
        {
          "name": "stateNonce",
          "type": "uint256"
        },
        {
          "name": "signaturePlayer1",
          "type": "bytes"
        },
        {
          "name": "signaturePlayer2",
          "type": "bytes"
        }
      ],
      "name": "sendStateUpdate",
      "outputs": [],
      "payable": false,
      "stateMutability": "nonpayable",
      "type": "function"
    },
    {
      "constant": false,
      "inputs": [
        {
          "name": "matchId",
          "type": "bytes32"
        },
        {
          "name": "previousBoardState",
          "type": "uint8[9]"
        },
        {
          "name": "move",
          "type": "uint8"
        },
        {
          "name": "gameStatus",
          "type": "uint8"
        },
        {
          "name": "stateNonce",
          "type": "uint256"
        }
      ],
      "name": "forceStateUpdate",
      "outputs": [],
      "payable": false,
      "stateMutability": "nonpayable",
      "type": "function"
    },
    {
      "constant": false,
      "inputs": [
        {
          "name": "matchId",
          "type": "bytes32"
        }
      ],
      "name": "cancelTermination",
      "outputs": [],
      "payable": false,
      "stateMutability": "nonpayable",
      "type": "function"
    },
    {
      "constant": false,
      "inputs": [
        {
          "name": "matchId",
          "type": "bytes32"
        }
      ],
      "name": "startTermination",
      "outputs": [],
      "payable": false,
      "stateMutability": "nonpayable",
      "type": "function"
    }
  ],
  "bytecode": "0x608060405234801561001057600080fd5b5061299e806100206000396000f3fe608060405260043610610072576000357c01000000000000000000000000000000000000000000000000000000009004806329d6a2d1146100775780632e5c833d146100e657806361029eb0146102a957806392726f45146102e4578063cdafbbb614610386578063d55c882f146103f9575b600080fd5b34801561008357600080fd5b506100d06004803603604081101561009a57600080fd5b81019080803573ffffffffffffffffffffffffffffffffffffffff16906020019092919080359060200190929190505050610434565b6040518082815260200191505060405180910390f35b3480156100f257600080fd5b506102a760048036036101c081101561010a57600080fd5b81019080803590602001909291908061012001906009806020026040519081016040528092919082600960200280828437600081840152601f19601f8201169050808301925050505050509192919290803560ff169060200190929190803590602001909291908035906020019064010000000081111561018a57600080fd5b82018360208201111561019c57600080fd5b803590602001918460018302840111640100000000831117156101be57600080fd5b91908080601f016020809104026020016040519081016040528093929190818152602001838380828437600081840152601f19601f8201169050808301925050505050505091929192908035906020019064010000000081111561022157600080fd5b82018360208201111561023357600080fd5b8035906020019184600183028401116401000000008311171561025557600080fd5b91908080601f016020809104026020016040519081016040528093929190818152602001838380828437600081840152601f19601f8201169050808301925050505050505091929192905050506107e2565b005b3480156102b557600080fd5b506102e2600480360360208110156102cc57600080fd5b8101908080359060200190929190505050610e87565b005b3480156102f057600080fd5b5061038460048036036101a081101561030857600080fd5b81019080803590602001909291908061012001906009806020026040519081016040528092919082600960200280828437600081840152601f19601f8201169050808301925050505050509192919290803560ff169060200190929190803560ff16906020019092919080359060200190929190505050611259565b005b34801561039257600080fd5b506103d5600480360360208110156103a957600080fd5b81019080803573ffffffffffffffffffffffffffffffffffffffff1690602001909291905050506118ef565b60405180848152602001838152602001828152602001935050505060405180910390f35b34801561040557600080fd5b506104326004803603602081101561041c57600080fd5b8101908080359060200190929190505050611919565b005b60006104c860016000803373ffffffffffffffffffffffffffffffffffffffff1673ffffffffffffffffffffffffffffffffffffffff16815260200190815260200160002060030160008673ffffffffffffffffffffffffffffffffffffffff1673ffffffffffffffffffffffffffffffffffffffff16815260200190815260200160002054611bee90919063ffffffff16565b6000803373ffffffffffffffffffffffffffffffffffffffff1673ffffffffffffffffffffffffffffffffffffffff16815260200190815260200160002060030160008573ffffffffffffffffffffffffffffffffffffffff1673ffffffffffffffffffffffffffffffffffffffff1681526020019081526020016000208190555060008060003373ffffffffffffffffffffffffffffffffffffffff1673ffffffffffffffffffffffffffffffffffffffff16815260200190815260200160002060030160008573ffffffffffffffffffffffffffffffffffffffff1673ffffffffffffffffffffffffffffffffffffffff168152602001908152602001600020549050338482604051602001808473ffffffffffffffffffffffffffffffffffffffff1673ffffffffffffffffffffffffffffffffffffffff1681526020018373ffffffffffffffffffffffffffffffffffffffff1673ffffffffffffffffffffffffffffffffffffffff1681526020018281526020019350505050604051602081830303815290604052805190602001209150600180600084815260200190815260200160002060020160006101000a81548160ff02191690831515021790555082600160008481526020019081526020016000206007018190555060408051908101604052803373ffffffffffffffffffffffffffffffffffffffff1673ffffffffffffffffffffffffffffffffffffffff1681526020018573ffffffffffffffffffffffffffffffffffffffff1673ffffffffffffffffffffffffffffffffffffffff16815250600160008481526020019081526020016000206000019060026107389291906127da565b507f3f76e05abc7be49390fb125127e31249aaebb6d7afde529731cca4af697ffeb1338584604051808473ffffffffffffffffffffffffffffffffffffffff1673ffffffffffffffffffffffffffffffffffffffff1681526020018373ffffffffffffffffffffffffffffffffffffffff1673ffffffffffffffffffffffffffffffffffffffff168152602001828152602001935050505060405180910390a18191505092915050565b856001600082815260200190815260200160002060020160009054906101000a900460ff16151561087b576040517f08c379a00000000000000000000000000000000000000000000000000000000081526004018080602001828103825260188152602001807f4d61746368206973206e6f7420696e2070726f6772657373000000000000000081525060200191505060405180910390fd5b33878173ffffffffffffffffffffffffffffffffffffffff166001600083815260200190815260200160002060000160006002811015156108b857fe5b0160009054906101000a900473ffffffffffffffffffffffffffffffffffffffff1673ffffffffffffffffffffffffffffffffffffffff16148061096c57508173ffffffffffffffffffffffffffffffffffffffff1660016000838152602001908152602001600020600001600160028110151561093257fe5b0160009054906101000a900473ffffffffffffffffffffffffffffffffffffffff1673ffffffffffffffffffffffffffffffffffffffff16145b15156109e0576040517f08c379a000000000000000000000000000000000000000000000000000000000815260040180806020018281038252601d8152602001807f4d757374206265206120706c6179657220696e20746865206d6174636800000081525060200191505060405180910390fd5b6109e8612857565b600160008b815260200190815260200160002060e0604051908101604052908160008201600280602002604051908101604052809291908260028015610a79576020028201915b8160009054906101000a900473ffffffffffffffffffffffffffffffffffffffff1673ffffffffffffffffffffffffffffffffffffffff1681526020019060010190808311610a2f575b505050505081526020016002820160009054906101000a900460ff1615151515815260200160038201548152602001600482015481526020016005820160009054906101000a900460ff161515151581526020016006820154815260200160078201548152505090508060600151871180610b075750600087148015610b06575060006001028160400151145b5b1515610bc7576040517f08c379a00000000000000000000000000000000000000000000000000000000081526004018080602001828103825260428152602001807f547279696e6720746f207570646174652061207374617465207769746820612081526020017f6e6f6e636520736d616c6c6572207468616e207468652063757272656e74206f81526020017f6e6500000000000000000000000000000000000000000000000000000000000081525060600191505060405180910390fd5b60008a8a8a8a6040516020018085815260200184600960200280838360005b83811015610c01578082015181840152602081019050610be6565b505050509050018360ff1660ff168152602001828152602001945050505050604051602081830303815290604052805190602001209050610c406128a3565b6040805190810160405280610c5e8a85611c7890919063ffffffff16565b73ffffffffffffffffffffffffffffffffffffffff1673ffffffffffffffffffffffffffffffffffffffff168152602001610ca28985611c7890919063ffffffff16565b73ffffffffffffffffffffffffffffffffffffffff1673ffffffffffffffffffffffffffffffffffffffff16815250905082600001516000600281101515610ce657fe5b602002015173ffffffffffffffffffffffffffffffffffffffff16816000600281101515610d1057fe5b602002015173ffffffffffffffffffffffffffffffffffffffff16141515610da0576040517f08c379a000000000000000000000000000000000000000000000000000000000815260040180806020018281038252601c8152602001807f57726f6e67207369676e617475726520666f7220706c6179657220310000000081525060200191505060405180910390fd5b82600001516001600281101515610db357fe5b602002015173ffffffffffffffffffffffffffffffffffffffff16816001600281101515610ddd57fe5b602002015173ffffffffffffffffffffffffffffffffffffffff16141515610e6d576040517f08c379a000000000000000000000000000000000000000000000000000000000815260040180806020018281038252601c8152602001807f57726f6e67207369676e617475726520666f7220706c6179657220320000000081525060200191505060405180910390fd5b610e798c8b8b85611d7f565b505050505050505050505050565b806001600082815260200190815260200160002060020160009054906101000a900460ff161515610f20576040517f08c379a00000000000000000000000000000000000000000000000000000000081526004018080602001828103825260188152602001807f4d61746368206973206e6f7420696e2070726f6772657373000000000000000081525060200191505060405180910390fd5b816001600082815260200190815260200160002060050160009054906101000a900460ff161515610fb9576040517f08c379a000000000000000000000000000000000000000000000000000000000815260040180806020018281038252601b8152602001807f4d61746368206973206e6f7420696e207465726d696e6174696f6e000000000081525060200191505060405180910390fd5b8242600160008381526020019081526020016000206007015460016000848152602001908152602001600020600601540111151515611086576040517f08c379a00000000000000000000000000000000000000000000000000000000081526004018080602001828103825260298152602001807f54696d65206c696d697420746f207265736f6c7665207465726d696e6174696f81526020017f6e2065787069726564000000000000000000000000000000000000000000000081525060400191505060405180910390fd5b33848173ffffffffffffffffffffffffffffffffffffffff166001600083815260200190815260200160002060000160006002811015156110c357fe5b0160009054906101000a900473ffffffffffffffffffffffffffffffffffffffff1673ffffffffffffffffffffffffffffffffffffffff16148061117757508173ffffffffffffffffffffffffffffffffffffffff1660016000838152602001908152602001600020600001600160028110151561113d57fe5b0160009054906101000a900473ffffffffffffffffffffffffffffffffffffffff1673ffffffffffffffffffffffffffffffffffffffff16145b15156111eb576040517f08c379a000000000000000000000000000000000000000000000000000000000815260040180806020018281038252601d8152602001807f4d757374206265206120706c6179657220696e20746865206d6174636800000081525060200191505060405180910390fd5b60006001600088815260200190815260200160002060050160006101000a81548160ff0219169083151502179055507f4b474cd298ec179c75dcd4faa7f8608d2027b26061e20f696050ccc65526711e866040518082815260200191505060405180910390a1505050505050565b846001600082815260200190815260200160002060020160009054906101000a900460ff1615156112f2576040517f08c379a00000000000000000000000000000000000000000000000000000000081526004018080602001828103825260188152602001807f4d61746368206973206e6f7420696e2070726f6772657373000000000000000081525060200191505060405180910390fd5b33868173ffffffffffffffffffffffffffffffffffffffff1660016000838152602001908152602001600020600001600060028110151561132f57fe5b0160009054906101000a900473ffffffffffffffffffffffffffffffffffffffff1673ffffffffffffffffffffffffffffffffffffffff1614806113e357508173ffffffffffffffffffffffffffffffffffffffff166001600083815260200190815260200160002060000160016002811015156113a957fe5b0160009054906101000a900473ffffffffffffffffffffffffffffffffffffffff1673ffffffffffffffffffffffffffffffffffffffff16145b1515611457576040517f08c379a000000000000000000000000000000000000000000000000000000000815260040180806020018281038252601d8152602001807f4d757374206265206120706c6179657220696e20746865206d6174636800000081525060200191505060405180910390fd5b61145f612857565b600160008a815260200190815260200160002060e06040519081016040529081600082016002806020026040519081016040528092919082600280156114f0576020028201915b8160009054906101000a900473ffffffffffffffffffffffffffffffffffffffff1673ffffffffffffffffffffffffffffffffffffffff16815260200190600101908083116114a6575b505050505081526020016002820160009054906101000a900460ff1615151515815260200160038201548152602001600482015481526020016005820160009054906101000a900460ff161515151581526020016006820154815260200160078201548152505090506115616128c5565b889050600060028781151561157257fe5b06141561165c578160000151600060028110151561158c57fe5b602002015173ffffffffffffffffffffffffffffffffffffffff163373ffffffffffffffffffffffffffffffffffffffff16141515611633576040517f08c379a00000000000000000000000000000000000000000000000000000000081526004018080602001828103825260118152602001807f4e6f7420706c617965722031207475726e00000000000000000000000000000081525060200191505060405180910390fd5b6001818960ff1660098110151561164657fe5b602002019060ff16908160ff168152505061173b565b8160000151600060028110151561166f57fe5b602002015173ffffffffffffffffffffffffffffffffffffffff163373ffffffffffffffffffffffffffffffffffffffff16141515611716576040517f08c379a00000000000000000000000000000000000000000000000000000000081526004018080602001828103825260118152602001807f4e6f7420706c617965722032207475726e00000000000000000000000000000081525060200191505060405180910390fd5b6002818960ff1660098110151561172957fe5b602002019060ff16908160ff16815250505b6000898960ff1660098110151561174e57fe5b602002015160ff161415156117cb576040517f08c379a00000000000000000000000000000000000000000000000000000000081526004018080602001828103825260158152602001807f43656c6c20616c7265616479206f63637570696564000000000000000000000081525060200191505060405180910390fd5b81608001511561183c576000600160008c815260200190815260200160002060050160006101000a81548160ff0219169083151502179055507f4b474cd298ec179c75dcd4faa7f8608d2027b26061e20f696050ccc65526711e8a6040518082815260200191505060405180910390a15b60008a8289896040516020018085815260200184600960200280838360005b8381101561187657808201518184015260208101905061185b565b505050509050018360ff1660ff1681526020018281526020019450505050506040516020818303038152906040528051906020012090506118b6816121c8565b90506118c182612220565b156118d5576118d08b336124f9565b6118e2565b6118e18b898984611d7f565b5b5050505050505050505050565b60006020528060005260406000206000915090508060000154908060010154908060020154905083565b804260016000838152602001908152602001600020600701546001600084815260200190815260200160002060060154011115156119e5576040517f08c379a00000000000000000000000000000000000000000000000000000000081526004018080602001828103825260318152602001807f54696d65206c696d697420746f207265736f6c7665207465726d696e6174696f81526020017f6e20686173206e6f74206578706972656400000000000000000000000000000081525060400191505060405180910390fd5b33828173ffffffffffffffffffffffffffffffffffffffff16600160008381526020019081526020016000206000016000600281101515611a2257fe5b0160009054906101000a900473ffffffffffffffffffffffffffffffffffffffff1673ffffffffffffffffffffffffffffffffffffffff161480611ad657508173ffffffffffffffffffffffffffffffffffffffff16600160008381526020019081526020016000206000016001600281101515611a9c57fe5b0160009054906101000a900473ffffffffffffffffffffffffffffffffffffffff1673ffffffffffffffffffffffffffffffffffffffff16145b1515611b4a576040517f08c379a000000000000000000000000000000000000000000000000000000000815260040180806020018281038252601d8152602001807f4d757374206265206120706c6179657220696e20746865206d6174636800000081525060200191505060405180910390fd5b600180600086815260200190815260200160002060050160006101000a81548160ff0219169083151502179055504260016000868152602001908152602001600020600601819055507f8d1863f3ce820cd76911dc171760789d4ce353c841a97e321b01b5795dfa6513846001600087815260200190815260200160002060070154604051808381526020018281526020019250505060405180910390a150505050565b6000808284019050838110151515611c6e576040517f08c379a000000000000000000000000000000000000000000000000000000000815260040180806020018281038252601b8152602001807f536166654d6174683a206164646974696f6e206f766572666c6f77000000000081525060200191505060405180910390fd5b8091505092915050565b600060418251141515611c8e5760009050611d79565b60008060006020850151925060408501519150606085015160001a90507f7fffffffffffffffffffffffffffffff5d576e7357a4501ddfe92f46681b20a082600190041115611ce35760009350505050611d79565b601b8160ff1614158015611cfb5750601c8160ff1614155b15611d0c5760009350505050611d79565b60018682858560405160008152602001604052604051808581526020018460ff1660ff1681526020018381526020018281526020019450505050506020604051602081039080840390855afa158015611d69573d6000803e3d6000fd5b5050506020604051035193505050505b92915050565b611d87612857565b6001600086815260200190815260200160002060e0604051908101604052908160008201600280602002604051908101604052809291908260028015611e18576020028201915b8160009054906101000a900473ffffffffffffffffffffffffffffffffffffffff1673ffffffffffffffffffffffffffffffffffffffff1681526020019060010190808311611dce575b505050505081526020016002820160009054906101000a900460ff1615151515815260200160038201548152602001600482015481526020016005820160009054906101000a900460ff1615151515815260200160068201548152602001600782015481525050905060008460ff161415611ef957806080015115611ee05760008160800190151590811515815250507f4b474cd298ec179c75dcd4faa7f8608d2027b26061e20f696050ccc65526711e856040518082815260200191505060405180910390a15b81816040018181525050828160600181815250506121c1565b60018460ff161480611f0e575060028460ff16145b15611f6857600060018560ff1614611f3d5781600001516001600281101515611f3357fe5b6020020151611f56565b81600001516000600281101515611f5057fe5b60200201515b9050611f6286826124f9565b506121c0565b60038460ff16141561215157611f7c6128a3565b81600001519050611feb6001600080846000600281101515611f9a57fe5b602002015173ffffffffffffffffffffffffffffffffffffffff1673ffffffffffffffffffffffffffffffffffffffff16815260200190815260200160002060020154611bee90919063ffffffff16565b600080836000600281101515611ffd57fe5b602002015173ffffffffffffffffffffffffffffffffffffffff1673ffffffffffffffffffffffffffffffffffffffff168152602001908152602001600020600201819055506120ab600160008084600160028110151561205a57fe5b602002015173ffffffffffffffffffffffffffffffffffffffff1673ffffffffffffffffffffffffffffffffffffffff16815260200190815260200160002060020154611bee90919063ffffffff16565b6000808360016002811015156120bd57fe5b602002015173ffffffffffffffffffffffffffffffffffffffff1673ffffffffffffffffffffffffffffffffffffffff1681526020019081526020016000206002018190555060008260200190151590811515815250507f19da4d77d5e9f090b735ac72ae3dd624d6e843213bd2d9e3166153c29d4a4f5e866040518082815260200191505060405180910390a1506121bf565b6040517f08c379a00000000000000000000000000000000000000000000000000000000081526004018080602001828103825260138152602001807f696e76616c69642067616d65207374617475730000000000000000000000000081525060200191505060405180910390fd5b5b5b5050505050565b60008160405160200180807f19457468657265756d205369676e6564204d6573736167653a0a333200000000815250601c01828152602001915050604051602081830303815290604052805190602001209050919050565b600061222a6128e9565b6101006040519081016040528084600260098110151561224657fe5b602002015185600160098110151561225a57fe5b602002015186600060098110151561226e57fe5b6020020151161660ff1660ff16815260200184600560098110151561228f57fe5b60200201518560046009811015156122a357fe5b60200201518660036009811015156122b757fe5b6020020151161660ff1660ff1681526020018460086009811015156122d857fe5b60200201518560076009811015156122ec57fe5b602002015186600660098110151561230057fe5b6020020151161660ff1660ff16815260200184600660098110151561232157fe5b602002015185600360098110151561233557fe5b602002015186600060098110151561234957fe5b6020020151161660ff1660ff16815260200184600760098110151561236a57fe5b602002015185600460098110151561237e57fe5b602002015186600160098110151561239257fe5b6020020151161660ff1660ff1681526020018460086009811015156123b357fe5b60200201518560056009811015156123c757fe5b60200201518660026009811015156123db57fe5b6020020151161660ff1660ff1681526020018460086009811015156123fc57fe5b602002015185600460098110151561241057fe5b602002015186600060098110151561242457fe5b6020020151161660ff1660ff16815260200184600660098110151561244557fe5b602002015185600460098110151561245957fe5b602002015186600260098110151561246d57fe5b6020020151161660ff1660ff16815250905060008090505b60088160ff1610156124ed576001828260ff166008811015156124a457fe5b602002015160ff1614806124d057506002828260ff166008811015156124c657fe5b602002015160ff16145b156124e0576001925050506124f4565b8080600101915050612485565b5060009150505b919050565b60008173ffffffffffffffffffffffffffffffffffffffff1660016000858152602001908152602001600020600001600060028110151561253657fe5b0160009054906101000a900473ffffffffffffffffffffffffffffffffffffffff1673ffffffffffffffffffffffffffffffffffffffff16146125be5760016000848152602001908152602001600020600001600060028110151561259757fe5b0160009054906101000a900473ffffffffffffffffffffffffffffffffffffffff16612605565b6001600084815260200190815260200160002060000160016002811015156125e257fe5b0160009054906101000a900473ffffffffffffffffffffffffffffffffffffffff165b905061265c60016000808573ffffffffffffffffffffffffffffffffffffffff1673ffffffffffffffffffffffffffffffffffffffff16815260200190815260200160002060000154611bee90919063ffffffff16565b6000808473ffffffffffffffffffffffffffffffffffffffff1673ffffffffffffffffffffffffffffffffffffffff168152602001908152602001600020600001819055506126f660016000808473ffffffffffffffffffffffffffffffffffffffff1673ffffffffffffffffffffffffffffffffffffffff16815260200190815260200160002060000154611bee90919063ffffffff16565b6000808373ffffffffffffffffffffffffffffffffffffffff1673ffffffffffffffffffffffffffffffffffffffff1681526020019081526020016000206001018190555060006001600085815260200190815260200160002060020160006101000a81548160ff0219169083151502179055507f56fbc85c835bbed2dbee02295d2d8b1b8fdd180770ac5331dc951cc1e96d85f38284604051808373ffffffffffffffffffffffffffffffffffffffff1673ffffffffffffffffffffffffffffffffffffffff1681526020018281526020019250505060405180910390a1505050565b8260028101928215612846579160200282015b828111156128455782518260006101000a81548173ffffffffffffffffffffffffffffffffffffffff021916908373ffffffffffffffffffffffffffffffffffffffff160217905550916020019190600101906127ed565b5b509050612853919061290d565b5090565b6101006040519081016040528061286c612950565b8152602001600015158152602001600080191681526020016000815260200160001515815260200160008152602001600081525090565b6040805190810160405280600290602082028038833980820191505090505090565b61012060405190810160405280600990602082028038833980820191505090505090565b61010060405190810160405280600890602082028038833980820191505090505090565b61294d91905b8082111561294957600081816101000a81549073ffffffffffffffffffffffffffffffffffffffff021916905550600101612913565b5090565b90565b604080519081016040528060029060208202803883398082019150509050509056fea165627a7a7230582053cb3fdad02fde813e4b2f69c9ec7772bb81373e234300952c61b38252c44de30029",
  "source": "pragma solidity ^0.5.0;\n\nimport \"./Libraries/SafeMath.sol\";\nimport \"./Libraries/ECDSA.sol\";\n\ncontract TicTacToe {\n    using SafeMath for uint256;\n    using ECDSA for bytes32;\n\n    struct Player {\n        uint256 wins;\n        uint256 losses;\n        uint256 draws;\n        // number of matches played against an opponent\n        mapping(address => uint256) opponentNonce;\n    }\n\n    struct Match {\n        address[2] players;\n        bool inProgress;\n        bytes32 currentStateRoot;\n        uint256 currentStateNonce;\n        bool termination;\n        uint256 terminationStartTimestamp;\n        uint256 terminationTimeLimit;\n    }\n\n    // map from player address to his stats\n    mapping(address => Player) public playerStats;\n    // map from matchId to current state of that match\n    mapping(bytes32 => Match) matches;\n\n    event MatchStarted(address player1, address player2, bytes32 matchId);\n    event MatchWon(address winner, bytes32 matchId);\n    event MatchDrawn(bytes32 matchId);\n    event TerminationStarted(bytes32 matchId, uint256 terminationTimeLimit);\n    event TerminationCancelled(bytes32 matchId);\n\n    function startMatch(address opponent, uint256 terminationTimeLimit)\n        public\n        returns (bytes32 matchId)\n    {\n        playerStats[msg.sender].opponentNonce[opponent] = playerStats[msg.sender].opponentNonce[opponent].add(1);\n        uint256 nonce = playerStats[msg.sender].opponentNonce[opponent];\n\n        // no need to verify if matchId is unique, if we assume the hash function is collision resistant\n        matchId = keccak256(abi.encode(msg.sender, opponent, nonce));\n        matches[matchId].inProgress = true;\n        // termination time limit in seconds\n        matches[matchId].terminationTimeLimit = terminationTimeLimit;\n        matches[matchId].players = [msg.sender, opponent];\n\n        emit MatchStarted(msg.sender, opponent, matchId);\n        return matchId;\n    }\n\n    modifier matchInProgress(bytes32 matchId) {\n        require(matches[matchId].inProgress, \"Match is not in progress\");\n        _;\n    }\n\n    modifier terminationInProgress(bytes32 matchId) {\n        require(matches[matchId].termination, \"Match is not in termination\");\n        _;\n    }\n\n    modifier matchTerminationNotExpired(bytes32 matchId) {\n        require(\n            matches[matchId].terminationStartTimestamp + matches[matchId].terminationTimeLimit <= block.timestamp,\n            \"Time limit to resolve termination expired\"\n        );\n        _;\n    }\n\n    modifier matchTerminationExpired(bytes32 matchId) {\n        require(\n            matches[matchId].terminationStartTimestamp + matches[matchId].terminationTimeLimit > block.timestamp,\n            \"Time limit to resolve termination has not expired\"\n        );\n        _;\n    }\n\n    modifier playerIsPartOfMatch(address player, bytes32 matchId) {\n        require(\n            matches[matchId].players[0] == player || matches[matchId].players[1] == player,\n            \"Must be a player in the match\"\n        );\n        _;\n    }\n\n    function sendStateUpdate(\n        bytes32 matchId,\n        uint8[9] memory boardState,\n        uint8 gameStatus,\n        uint256 stateNonce,\n        bytes memory signaturePlayer1,\n        bytes memory signaturePlayer2\n    )\n        public matchInProgress(matchId) playerIsPartOfMatch(msg.sender, matchId)\n    {\n        Match memory currMatch = matches[matchId];\n\n        // either nonce is bigger, or first state update with nonce 0\n        require(\n            stateNonce > currMatch.currentStateNonce || (stateNonce == 0 && currMatch.currentStateRoot == 0),\n            \"Trying to update a state with a nonce smaller than the current one\"\n        );\n\n        // users should have signed this state root\n        bytes32 stateRoot = keccak256(abi.encode(matchId, boardState, gameStatus, stateNonce));\n        // messages signed are prepended with \"\\x19Ethereum Signed Message:\\n32\" for safety\n        // stateRoot = stateRoot.toEthSignedMessageHash();\n\n        // get address used to sign state root\n        address[2] memory players = [\n            stateRoot.recover(signaturePlayer1),\n            stateRoot.recover(signaturePlayer2)\n        ];\n\n        // we assume the first signature is from player 1, the player that called startMatch(...)\n        require(players[0] == currMatch.players[0], \"Wrong signature for player 1\");\n        require(players[1] == currMatch.players[1], \"Wrong signature for player 2\");\n\n        updateMatchState(matchId, gameStatus, stateNonce, stateRoot);\n    }\n\n    function updateMatchState(\n        bytes32 matchId,\n        uint8 gameStatus,\n        uint256 stateNonce,\n        bytes32 stateRoot\n    )\n        internal\n    {\n        Match memory currMatch = matches[matchId];\n\n        if(gameStatus == 0) {\n            // if game in progress, gameStatus == 0\n            if(currMatch.termination){\n                currMatch.termination = false;\n                emit TerminationCancelled(matchId);\n            }\n            currMatch.currentStateRoot = stateRoot;\n            currMatch.currentStateNonce = stateNonce;\n        } else if(gameStatus == 1 || gameStatus == 2) {\n            // if player 1 won, gameStatus == 1\n            // if player 2 won, gameStatus == 2\n            address winner = gameStatus == 1 ? currMatch.players[0] : currMatch.players[1];\n\n            playerWonMatch(matchId, winner);\n        } else if(gameStatus == 3) {\n            // if game was a draw, gameStatus == 3\n            address[2] memory players = currMatch.players;\n\n            // add a draw for player 1\n            playerStats[players[0]].draws = playerStats[players[0]].draws.add(1);\n            // add a draw for player 2\n            playerStats[players[1]].draws = playerStats[players[1]].draws.add(1);\n\n            // game finished\n            currMatch.inProgress = false;\n            emit MatchDrawn(matchId);\n        } else {\n            revert(\"invalid game status\");\n        }\n    }\n\n    // start termination\n    function forceStateUpdate(\n        bytes32 matchId,\n        uint8[9] memory previousBoardState,\n        uint8 move,\n        uint8 gameStatus,\n        uint256 stateNonce\n    )\n        public matchInProgress(matchId) playerIsPartOfMatch(msg.sender, matchId)\n    {\n        // check if transition is valid\n        Match memory currMatch = matches[matchId];\n        uint8[9] memory newState = previousBoardState;\n\n        // check the game state is valid\n        // check it's the player's turn\n        if(stateNonce % 2 == 0) {\n            require(msg.sender == currMatch.players[0], \"Not player 1 turn\");\n            newState[move] = 1;\n        } else {\n            require(msg.sender == currMatch.players[0], \"Not player 2 turn\");\n            newState[move] = 2;\n        }\n        // check that the space isn't already checked\n        require(previousBoardState[move] == 0, \"Cell already occupied\");\n\n        if(currMatch.termination){\n            matches[matchId].termination = false;\n            emit TerminationCancelled(matchId);\n        }\n\n        bytes32 stateRoot = keccak256(abi.encode(matchId, newState, gameStatus, stateNonce));\n        // messages signed are prepended with \"\\x19Ethereum Signed Message:\\n32\" for safety\n        stateRoot = stateRoot.toEthSignedMessageHash();\n\n        if(isWinningState(newState)) {\n            playerWonMatch(matchId, msg.sender);\n        } else {\n            // Update game state\n            updateMatchState(matchId, gameStatus, stateNonce, stateRoot);\n        }\n    }\n\n    function isWinningState(uint8[9] memory state) internal pure returns (bool) {\n        uint8[8] memory rows = [\n            state[0] & state[1] & state[2],\n            state[3] & state[4] & state[5],\n            state[6] & state[7] & state[8],\n            state[0] & state[3] & state[6],\n            state[1] & state[4] & state[7],\n            state[2] & state[5] & state[8],\n            state[0] & state[4] & state[8],\n            state[2] & state[4] & state[6]\n        ];\n        // Loop over all of the rows and check if they bitwise and to 0x01 or 0x02\n        for (uint8 i = 0; i < rows.length; i++) {\n            if (rows[i] == 0x01 || rows[i] == 0x02) {\n                return true;\n            }\n        }\n\n        return false;\n    }\n\n    // bob acknowledges and cancels the termination\n    function cancelTermination(bytes32 matchId)\n        public\n        matchInProgress(matchId)\n        terminationInProgress(matchId)\n        matchTerminationNotExpired(matchId)\n        playerIsPartOfMatch(msg.sender, matchId)\n    {\n        matches[matchId].termination = false;\n        emit TerminationCancelled(matchId);\n    }\n\n    // open a termination window\n    function startTermination(bytes32 matchId)\n        public\n        matchTerminationExpired(matchId) playerIsPartOfMatch(msg.sender, matchId)\n    {\n        matches[matchId].termination = true;\n        // could use current block number\n        matches[matchId].terminationStartTimestamp = block.timestamp;\n        emit TerminationStarted(matchId, matches[matchId].terminationTimeLimit);\n    }\n\n    function playerWonMatch(bytes32 matchId, address winner) internal {\n        // infer the looser based on winner, as its a 2 player game\n        address looser = matches[matchId].players[0] == winner ? matches[matchId].players[1] : matches[matchId].players[0];\n\n        playerStats[winner].wins = playerStats[winner].wins.add(1);\n        playerStats[looser].losses = playerStats[looser].wins.add(1);\n\n        // game finished\n        matches[matchId].inProgress = false;\n        emit MatchWon(winner, matchId);\n    }\n}",
  "sourcePath": "/Users/fred/dev/eth-tac-toe/contracts/TicTacToe.sol",
  "compiler": {
    "name": "solc",
    "version": "0.5.1+commit.c8a2cb62.Emscripten.clang"
  },
  "schemaVersion": "3.0.23",
  "updatedAt": "2020-03-12T13:22:08.193Z",
  "devdoc": {
    "methods": {}
  },
  "userdoc": {
    "methods": {}
  }
}